{
  "contractName": "Owned",
  "abi": [
    {
      "inputs": [],
      "payable": false,
      "stateMutability": "nonpayable",
      "type": "constructor"
    },
    {
      "anonymous": false,
      "inputs": [
        {
          "indexed": false,
          "name": "newOwner",
          "type": "address"
        }
      ],
      "name": "LogOwnerChanged",
      "type": "event"
    },
    {
      "constant": false,
      "inputs": [
        {
          "name": "newOwner",
          "type": "address"
        }
      ],
      "name": "setOwner",
      "outputs": [],
      "payable": false,
      "stateMutability": "nonpayable",
      "type": "function"
    }
  ],
  "bytecode": "0x608060405234801561001057600080fd5b50336000806101000a81548173ffffffffffffffffffffffffffffffffffffffff021916908373ffffffffffffffffffffffffffffffffffffffff1602179055506102f8806100606000396000f3fe608060405260043610610041576000357c0100000000000000000000000000000000000000000000000000000000900463ffffffff16806313af403514610046575b600080fd5b34801561005257600080fd5b506100956004803603602081101561006957600080fd5b81019080803573ffffffffffffffffffffffffffffffffffffffff169060200190929190505050610097565b005b3373ffffffffffffffffffffffffffffffffffffffff166000809054906101000a900473ffffffffffffffffffffffffffffffffffffffff1673ffffffffffffffffffffffffffffffffffffffff1614151561015b576040517f08c379a00000000000000000000000000000000000000000000000000000000081526004018080602001828103825260208152602001807f4f6e6c79206f776e65722063616e2075736520746869732066756e6374696f6e81525060200191505060405180910390fd5b600073ffffffffffffffffffffffffffffffffffffffff168173ffffffffffffffffffffffffffffffffffffffff1614151515610226576040517f08c379a00000000000000000000000000000000000000000000000000000000081526004018080602001828103825260228152602001807f6e65774f776e65722073686f756c6420626520612076616c696420616464726581526020017f737300000000000000000000000000000000000000000000000000000000000081525060400191505060405180910390fd5b7fa414b3eaf11f6c863a0bb4b36d8231c14e687177fa35fc1ac22b8ff4cd2c109f81604051808273ffffffffffffffffffffffffffffffffffffffff1673ffffffffffffffffffffffffffffffffffffffff16815260200191505060405180910390a1806000806101000a81548173ffffffffffffffffffffffffffffffffffffffff021916908373ffffffffffffffffffffffffffffffffffffffff1602179055505056fea165627a7a72305820f3f445fdfe90854fae375d8f173e134bcf083c619a4ce297effb17bc4ea996290029",
  "source": "pragma solidity >=0.4.22 <0.6.0;\n\n// Owned code taken from B9Lab Module 3 Solidity Elements\ncontract Owned {\n    address private owner;\n\n    event LogOwnerChanged(address newOwner);\n\n    modifier onlyOwner {\n        require(owner == msg.sender, \"Only owner can use this function\");\n        _;\n    }\n\n    constructor() public {\n        owner = msg.sender;\n    }\n\n    function setOwner(address newOwner) public onlyOwner{\n        require(newOwner != address(0), \"newOwner should be a valid address\");\n        emit LogOwnerChanged(newOwner);\n        owner = newOwner;\n    }\n}\n",
  "sourcePath": "/home/vb/DAPPS/Splitter/contracts/Owned.sol",
  "compiler": {
    "name": "solc",
    "version": "0.5.0+commit.1d4f565a.Emscripten.clang"
  },
  "schemaVersion": "3.0.3",
  "updatedAt": "2019-07-17T04:24:35.213Z",
  "devdoc": {
    "methods": {}
  },
  "userdoc": {
    "methods": {}
  }
}