{
  "contractName": "Splitter",
  "abi": [
    {
      "constant": false,
      "inputs": [],
      "name": "stopContract",
      "outputs": [
        {
          "name": "success",
          "type": "bool"
        }
      ],
      "payable": false,
      "stateMutability": "nonpayable",
      "type": "function",
      "signature": "0x12253a6c"
    },
    {
      "constant": false,
      "inputs": [
        {
          "name": "newOwner",
          "type": "address"
        }
      ],
      "name": "setOwner",
      "outputs": [],
      "payable": false,
      "stateMutability": "nonpayable",
      "type": "function",
      "signature": "0x13af4035"
    },
    {
      "constant": false,
      "inputs": [],
      "name": "pauseContract",
      "outputs": [
        {
          "name": "success",
          "type": "bool"
        }
      ],
      "payable": false,
      "stateMutability": "nonpayable",
      "type": "function",
      "signature": "0x439766ce"
    },
    {
      "constant": false,
      "inputs": [],
      "name": "resumeContract",
      "outputs": [
        {
          "name": "success",
          "type": "bool"
        }
      ],
      "payable": false,
      "stateMutability": "nonpayable",
      "type": "function",
      "signature": "0xc4bc5da5"
    },
    {
      "inputs": [
        {
          "name": "initialRunState",
          "type": "bool"
        }
      ],
      "payable": false,
      "stateMutability": "nonpayable",
      "type": "constructor",
      "signature": "constructor"
    },
    {
      "anonymous": false,
      "inputs": [
        {
          "indexed": true,
          "name": "_bob",
          "type": "address"
        },
        {
          "indexed": true,
          "name": "_carol",
          "type": "address"
        },
        {
          "indexed": false,
          "name": "_value",
          "type": "uint256"
        }
      ],
      "name": "Splitted",
      "type": "event",
      "signature": "0x490350d803844f1284c5ca1d2052ebac49f0caa9544552498cdef4bbfe57d8ce"
    },
    {
      "anonymous": false,
      "inputs": [
        {
          "indexed": true,
          "name": "_from",
          "type": "address"
        },
        {
          "indexed": true,
          "name": "_to",
          "type": "address"
        },
        {
          "indexed": false,
          "name": "_value",
          "type": "uint256"
        }
      ],
      "name": "Transfer",
      "type": "event",
      "signature": "0xddf252ad1be2c89b69c2b068fc378daa952ba7f163c4a11628f55a4df523b3ef"
    },
    {
      "anonymous": false,
      "inputs": [
        {
          "indexed": false,
          "name": "sender",
          "type": "address"
        }
      ],
      "name": "LogPausedContract",
      "type": "event",
      "signature": "0x0f16e24f375b1dbe1f5a889ed7cfe74cc12486509f3d710d14078f0018743622"
    },
    {
      "anonymous": false,
      "inputs": [
        {
          "indexed": false,
          "name": "sender",
          "type": "address"
        }
      ],
      "name": "LogResumedContract",
      "type": "event",
      "signature": "0x9462c22f62fe0e78a883a0adee3ba3cea8e9260940405ae88d97364fc9c66992"
    },
    {
      "anonymous": false,
      "inputs": [
        {
          "indexed": false,
          "name": "sender",
          "type": "address"
        }
      ],
      "name": "LogStoppedContract",
      "type": "event",
      "signature": "0x411d34ad8a1c4c3a9a9f5f0fbd9bbacb09e746c13813fae8a11a23fd124b2d5c"
    },
    {
      "anonymous": false,
      "inputs": [
        {
          "indexed": false,
          "name": "newOwner",
          "type": "address"
        }
      ],
      "name": "LogOwnerChanged",
      "type": "event",
      "signature": "0xa414b3eaf11f6c863a0bb4b36d8231c14e687177fa35fc1ac22b8ff4cd2c109f"
    },
    {
      "constant": false,
      "inputs": [
        {
          "name": "bob",
          "type": "address"
        },
        {
          "name": "carol",
          "type": "address"
        }
      ],
      "name": "split",
      "outputs": [
        {
          "name": "status",
          "type": "bool"
        }
      ],
      "payable": true,
      "stateMutability": "payable",
      "type": "function",
      "signature": "0x0f2c9329"
    },
    {
      "constant": true,
      "inputs": [
        {
          "name": "check",
          "type": "address"
        }
      ],
      "name": "getBalanceOf",
      "outputs": [
        {
          "name": "amount",
          "type": "uint256"
        }
      ],
      "payable": false,
      "stateMutability": "view",
      "type": "function",
      "signature": "0x9b96eece"
    },
    {
      "constant": false,
      "inputs": [
        {
          "name": "amount",
          "type": "uint256"
        }
      ],
      "name": "withdraw",
      "outputs": [
        {
          "name": "status",
          "type": "bool"
        }
      ],
      "payable": false,
      "stateMutability": "nonpayable",
      "type": "function",
      "signature": "0x2e1a7d4d"
    }
  ],
  "bytecode": "0x608060405234801561001057600080fd5b506040516020806116188339810180604052602081101561003057600080fd5b810190808051906020019092919050505080336000806101000a81548173ffffffffffffffffffffffffffffffffffffffff021916908373ffffffffffffffffffffffffffffffffffffffff16021790555080600060146101000a81548160ff02191690831515021790555060008060156101000a81548160ff0219169083151502179055505050611551806100c76000396000f3fe608060405260043610610083576000357c0100000000000000000000000000000000000000000000000000000000900463ffffffff1680630f2c93291461008857806312253a6c1461010457806313af4035146101335780632e1a7d4d14610184578063439766ce146101d75780639b96eece14610206578063c4bc5da51461026b575b600080fd5b6100ea6004803603604081101561009e57600080fd5b81019080803573ffffffffffffffffffffffffffffffffffffffff169060200190929190803573ffffffffffffffffffffffffffffffffffffffff16906020019092919050505061029a565b604051808215151515815260200191505060405180910390f35b34801561011057600080fd5b50610119610610565b604051808215151515815260200191505060405180910390f35b34801561013f57600080fd5b506101826004803603602081101561015657600080fd5b81019080803573ffffffffffffffffffffffffffffffffffffffff169060200190929190505050610806565b005b34801561019057600080fd5b506101bd600480360360208110156101a757600080fd5b8101908080359060200190929190505050610a3b565b604051808215151515815260200191505060405180910390f35b3480156101e357600080fd5b506101ec610e23565b604051808215151515815260200191505060405180910390f35b34801561021257600080fd5b506102556004803603602081101561022957600080fd5b81019080803573ffffffffffffffffffffffffffffffffffffffff169060200190929190505050611076565b6040518082815260200191505060405180910390f35b34801561027757600080fd5b506102806110bf565b604051808215151515815260200191505060405180910390f35b60008060149054906101000a900460ff16151561031f576040517f08c379a00000000000000000000000000000000000000000000000000000000081526004018080602001828103825260208152602001807f436f6e74726163742069732050617573656420617420746865206d6f6d656e7481525060200191505060405180910390fd5b600060159054906101000a900460ff161515156103a4576040517f08c379a000000000000000000000000000000000000000000000000000000000815260040180806020018281038252601f8152602001807f436f6e74726163742069732053746f70706564207065726d616e656e746c790081525060200191505060405180910390fd5b6000341115156103b057fe5b60006103c66002346112b590919063ffffffff16565b905060006103de60023461138290919063ffffffff16565b905061043282600160008873ffffffffffffffffffffffffffffffffffffffff1673ffffffffffffffffffffffffffffffffffffffff1681526020019081526020016000205461141090919063ffffffff16565b600160008773ffffffffffffffffffffffffffffffffffffffff1673ffffffffffffffffffffffffffffffffffffffff168152602001908152602001600020819055506104c782600160008773ffffffffffffffffffffffffffffffffffffffff1673ffffffffffffffffffffffffffffffffffffffff1681526020019081526020016000205461141090919063ffffffff16565b600160008673ffffffffffffffffffffffffffffffffffffffff1673ffffffffffffffffffffffffffffffffffffffff1681526020019081526020016000208190555061055c81600160003373ffffffffffffffffffffffffffffffffffffffff1673ffffffffffffffffffffffffffffffffffffffff1681526020019081526020016000205461141090919063ffffffff16565b600160003373ffffffffffffffffffffffffffffffffffffffff1673ffffffffffffffffffffffffffffffffffffffff168152602001908152602001600020819055508373ffffffffffffffffffffffffffffffffffffffff168573ffffffffffffffffffffffffffffffffffffffff167f490350d803844f1284c5ca1d2052ebac49f0caa9544552498cdef4bbfe57d8ce846040518082815260200191505060405180910390a360019250505092915050565b60003373ffffffffffffffffffffffffffffffffffffffff166000809054906101000a900473ffffffffffffffffffffffffffffffffffffffff1673ffffffffffffffffffffffffffffffffffffffff161415156106d6576040517f08c379a00000000000000000000000000000000000000000000000000000000081526004018080602001828103825260208152602001807f4f6e6c79206f776e65722063616e2075736520746869732066756e6374696f6e81525060200191505060405180910390fd5b600060149054906101000a900460ff16151515610781576040517f08c379a00000000000000000000000000000000000000000000000000000000081526004018080602001828103825260218152602001807f436f6e74726163742069732052756e6e696e6720617420746865206d6f6d656e81526020017f740000000000000000000000000000000000000000000000000000000000000081525060400191505060405180910390fd5b6001600060156101000a81548160ff0219169083151502179055507f411d34ad8a1c4c3a9a9f5f0fbd9bbacb09e746c13813fae8a11a23fd124b2d5c33604051808273ffffffffffffffffffffffffffffffffffffffff1673ffffffffffffffffffffffffffffffffffffffff16815260200191505060405180910390a16001905090565b3373ffffffffffffffffffffffffffffffffffffffff166000809054906101000a900473ffffffffffffffffffffffffffffffffffffffff1673ffffffffffffffffffffffffffffffffffffffff161415156108ca576040517f08c379a00000000000000000000000000000000000000000000000000000000081526004018080602001828103825260208152602001807f4f6e6c79206f776e65722063616e2075736520746869732066756e6374696f6e81525060200191505060405180910390fd5b600073ffffffffffffffffffffffffffffffffffffffff168173ffffffffffffffffffffffffffffffffffffffff1614151515610995576040517f08c379a00000000000000000000000000000000000000000000000000000000081526004018080602001828103825260228152602001807f6e65774f776e65722073686f756c6420626520612076616c696420616464726581526020017f737300000000000000000000000000000000000000000000000000000000000081525060400191505060405180910390fd5b7fa414b3eaf11f6c863a0bb4b36d8231c14e687177fa35fc1ac22b8ff4cd2c109f81604051808273ffffffffffffffffffffffffffffffffffffffff1673ffffffffffffffffffffffffffffffffffffffff16815260200191505060405180910390a1806000806101000a81548173ffffffffffffffffffffffffffffffffffffffff021916908373ffffffffffffffffffffffffffffffffffffffff16021790555050565b60008060149054906101000a900460ff161515610ac0576040517f08c379a00000000000000000000000000000000000000000000000000000000081526004018080602001828103825260208152602001807f436f6e74726163742069732050617573656420617420746865206d6f6d656e7481525060200191505060405180910390fd5b600060159054906101000a900460ff16151515610b45576040517f08c379a000000000000000000000000000000000000000000000000000000000815260040180806020018281038252601f8152602001807f436f6e74726163742069732053746f70706564207065726d616e656e746c790081525060200191505060405180910390fd5b600082111515610bbd576040517f08c379a00000000000000000000000000000000000000000000000000000000081526004018080602001828103825260178152602001807f5a65726f2063616e27742062652077697468647261776e00000000000000000081525060200191505060405180910390fd5b6000600160003373ffffffffffffffffffffffffffffffffffffffff1673ffffffffffffffffffffffffffffffffffffffff168152602001908152602001600020549050600081111515610c79576040517f08c379a00000000000000000000000000000000000000000000000000000000081526004018080602001828103825260138152602001807f4e6f7468696e6720746f2077697468647261770000000000000000000000000081525060200191505060405180910390fd5b828110151515610d17576040517f08c379a000000000000000000000000000000000000000000000000000000000815260040180806020018281038252602d8152602001807f576974686472617720616d6f756e74207265717565737465642068696768657281526020017f207468616e2062616c616e63650000000000000000000000000000000000000081525060400191505060405180910390fd5b610d2a838261149a90919063ffffffff16565b600160003373ffffffffffffffffffffffffffffffffffffffff1673ffffffffffffffffffffffffffffffffffffffff168152602001908152602001600020819055503373ffffffffffffffffffffffffffffffffffffffff163073ffffffffffffffffffffffffffffffffffffffff167fddf252ad1be2c89b69c2b068fc378daa952ba7f163c4a11628f55a4df523b3ef856040518082815260200191505060405180910390a33373ffffffffffffffffffffffffffffffffffffffff166108fc849081150290604051600060405180830381858888f19350505050158015610e18573d6000803e3d6000fd5b506001915050919050565b60003373ffffffffffffffffffffffffffffffffffffffff166000809054906101000a900473ffffffffffffffffffffffffffffffffffffffff1673ffffffffffffffffffffffffffffffffffffffff16141515610ee9576040517f08c379a00000000000000000000000000000000000000000000000000000000081526004018080602001828103825260208152602001807f4f6e6c79206f776e65722063616e2075736520746869732066756e6374696f6e81525060200191505060405180910390fd5b600060149054906101000a900460ff161515610f6d576040517f08c379a00000000000000000000000000000000000000000000000000000000081526004018080602001828103825260208152602001807f436f6e74726163742069732050617573656420617420746865206d6f6d656e7481525060200191505060405180910390fd5b600060159054906101000a900460ff16151515610ff2576040517f08c379a000000000000000000000000000000000000000000000000000000000815260040180806020018281038252601f8152602001807f436f6e74726163742069732053746f70706564207065726d616e656e746c790081525060200191505060405180910390fd5b60008060146101000a81548160ff0219169083151502179055507f0f16e24f375b1dbe1f5a889ed7cfe74cc12486509f3d710d14078f001874362233604051808273ffffffffffffffffffffffffffffffffffffffff1673ffffffffffffffffffffffffffffffffffffffff16815260200191505060405180910390a16001905090565b6000600160008373ffffffffffffffffffffffffffffffffffffffff1673ffffffffffffffffffffffffffffffffffffffff168152602001908152602001600020549050919050565b60003373ffffffffffffffffffffffffffffffffffffffff166000809054906101000a900473ffffffffffffffffffffffffffffffffffffffff1673ffffffffffffffffffffffffffffffffffffffff16141515611185576040517f08c379a00000000000000000000000000000000000000000000000000000000081526004018080602001828103825260208152602001807f4f6e6c79206f776e65722063616e2075736520746869732066756e6374696f6e81525060200191505060405180910390fd5b600060149054906101000a900460ff16151515611230576040517f08c379a00000000000000000000000000000000000000000000000000000000081526004018080602001828103825260218152602001807f436f6e74726163742069732052756e6e696e6720617420746865206d6f6d656e81526020017f740000000000000000000000000000000000000000000000000000000000000081525060400191505060405180910390fd5b6001600060146101000a81548160ff0219169083151502179055507f9462c22f62fe0e78a883a0adee3ba3cea8e9260940405ae88d97364fc9c6699233604051808273ffffffffffffffffffffffffffffffffffffffff1673ffffffffffffffffffffffffffffffffffffffff16815260200191505060405180910390a16001905090565b6000808314156112c8576000905061137c565b600082840290508284828115156112db57fe5b04141515611377576040517f08c379a00000000000000000000000000000000000000000000000000000000081526004018080602001828103825260218152602001807f536166654d6174683a206d756c7469706c69636174696f6e206f766572666c6f81526020017f770000000000000000000000000000000000000000000000000000000000000081525060400191505060405180910390fd5b809150505b92915050565b60008082141515156113fc576040517f08c379a00000000000000000000000000000000000000000000000000000000081526004018080602001828103825260188152602001807f536166654d6174683a206d6f64756c6f206279207a65726f000000000000000081525060200191505060405180910390fd5b818381151561140757fe5b06905092915050565b6000808284019050838110151515611490576040517f08c379a000000000000000000000000000000000000000000000000000000000815260040180806020018281038252601b8152602001807f536166654d6174683a206164646974696f6e206f766572666c6f77000000000081525060200191505060405180910390fd5b8091505092915050565b6000828211151515611514576040517f08c379a000000000000000000000000000000000000000000000000000000000815260040180806020018281038252601e8152602001807f536166654d6174683a207375627472616374696f6e206f766572666c6f77000081525060200191505060405180910390fd5b60008284039050809150509291505056fea165627a7a7230582069c1b9bfbc487f9959187090938566793292e827d7d454555cf7ae6196876cc00029",
  "source": "pragma solidity >=0.4.22 <0.6.0;\n\nimport \"./Stoppable.sol\";\nimport \"./SafeMath.sol\";\n\ncontract Splitter is Stoppable{\n    using SafeMath for uint;\n\n    mapping (address => uint) balances;\n\n    event Splitted(address indexed _bob, address indexed _carol, uint256 _value);\n    event Transfer(address indexed _from, address indexed _to, uint256 _value);\n\n    constructor(bool initialRunState) public Stoppable(initialRunState){\n    }\n\n    function split(address bob, address carol) public onlyIfRunning payable returns(bool status){\n\n        // To check if the amount to be send is positive or not.\n        assert(msg.value > 0);\n\n        // To divide the amount to be send to Bob and Carol\n        uint msgValueAmountByTwo = msg.value.mul(2);\n\n        // If the amount to be divided is not perfectly divided by two\n        uint remainingAmount = msg.value.mod(2);\n\n        // Balances of Bob and Carol is updated\n        balances[bob] = balances[bob].add(msgValueAmountByTwo);\n        balances[carol] = balances[carol].add(msgValueAmountByTwo);\n        balances[msg.sender] = balances[msg.sender].add(remainingAmount);\n\n        emit Splitted(bob, carol, msgValueAmountByTwo);\n        return true;\n    }\n\n    function getBalanceOf(address check) public view returns(uint amount){\n        return balances[check];\n    }\n\n    // https://stackoverflow.com/a/52438518/7520013\n    function withdraw(uint amount) public onlyIfRunning returns(bool status){\n        require(amount > 0, \"Zero can't be withdrawn\");\n\n        uint balance = balances[msg.sender];\n\n        require(balance > 0, \"Nothing to withdraw\");\n        require(balance >= amount, \"Withdraw amount requested higher than balance\");\n\n        // https://blog.ethereum.org/2016/06/10/smart-contract-security/\n        balances[msg.sender] = balance.sub(amount);\n\n        emit Transfer(address(this), msg.sender, amount);\n\n        msg.sender.transfer(amount);\n        return true;\n    }\n}\n",
  "sourcePath": "/home/vb/DAPPS/Splitter/contracts/Splitter.sol",
  "compiler": {
    "name": "solc",
    "version": "0.5.0+commit.1d4f565a.Emscripten.clang"
  },
  "schemaVersion": "3.0.3",
  "updatedAt": "2019-07-17T05:48:59.561Z",
  "devdoc": {
    "methods": {}
  },
  "userdoc": {
    "methods": {}
  }
}