{
  "contractName": "Splitter",
  "abi": [
    {
      "constant": false,
      "inputs": [
        {
          "name": "newOwner",
          "type": "address"
        }
      ],
      "name": "setOwner",
      "outputs": [],
      "payable": false,
      "stateMutability": "nonpayable",
      "type": "function"
    },
    {
      "constant": false,
      "inputs": [],
      "name": "pauseContract",
      "outputs": [
        {
          "name": "success",
          "type": "bool"
        }
      ],
      "payable": false,
      "stateMutability": "nonpayable",
      "type": "function"
    },
    {
      "constant": true,
      "inputs": [],
      "name": "owner",
      "outputs": [
        {
          "name": "",
          "type": "address"
        }
      ],
      "payable": false,
      "stateMutability": "view",
      "type": "function"
    },
    {
      "constant": false,
      "inputs": [],
      "name": "resumeContract",
      "outputs": [
        {
          "name": "success",
          "type": "bool"
        }
      ],
      "payable": false,
      "stateMutability": "nonpayable",
      "type": "function"
    },
    {
      "inputs": [],
      "payable": true,
      "stateMutability": "payable",
      "type": "constructor"
    },
    {
      "anonymous": false,
      "inputs": [
        {
          "indexed": true,
          "name": "_bob",
          "type": "address"
        },
        {
          "indexed": true,
          "name": "_carol",
          "type": "address"
        },
        {
          "indexed": false,
          "name": "_value",
          "type": "uint256"
        }
      ],
      "name": "Splitted",
      "type": "event"
    },
    {
      "anonymous": false,
      "inputs": [
        {
          "indexed": true,
          "name": "_from",
          "type": "address"
        },
        {
          "indexed": true,
          "name": "_to",
          "type": "address"
        },
        {
          "indexed": false,
          "name": "_value",
          "type": "uint256"
        }
      ],
      "name": "Transfer",
      "type": "event"
    },
    {
      "anonymous": false,
      "inputs": [
        {
          "indexed": false,
          "name": "sender",
          "type": "address"
        }
      ],
      "name": "LogPausedContract",
      "type": "event"
    },
    {
      "anonymous": false,
      "inputs": [
        {
          "indexed": false,
          "name": "sender",
          "type": "address"
        }
      ],
      "name": "LogResumedContract",
      "type": "event"
    },
    {
      "anonymous": false,
      "inputs": [
        {
          "indexed": true,
          "name": "previousOwner",
          "type": "address"
        },
        {
          "indexed": false,
          "name": "newOwner",
          "type": "address"
        }
      ],
      "name": "LogOwnerChanged",
      "type": "event"
    },
    {
      "constant": false,
      "inputs": [
        {
          "name": "bob",
          "type": "address"
        },
        {
          "name": "carol",
          "type": "address"
        }
      ],
      "name": "split",
      "outputs": [
        {
          "name": "status",
          "type": "bool"
        }
      ],
      "payable": true,
      "stateMutability": "payable",
      "type": "function"
    },
    {
      "constant": true,
      "inputs": [
        {
          "name": "check",
          "type": "address"
        }
      ],
      "name": "getBalanceOf",
      "outputs": [
        {
          "name": "amount",
          "type": "uint256"
        }
      ],
      "payable": false,
      "stateMutability": "view",
      "type": "function"
    },
    {
      "constant": false,
      "inputs": [
        {
          "name": "amount",
          "type": "uint256"
        }
      ],
      "name": "withdraw",
      "outputs": [
        {
          "name": "status",
          "type": "bool"
        }
      ],
      "payable": false,
      "stateMutability": "nonpayable",
      "type": "function"
    }
  ],
  "bytecode": "0x6080604052336000806101000a81548173ffffffffffffffffffffffffffffffffffffffff021916908373ffffffffffffffffffffffffffffffffffffffff1602179055506001600060146101000a81548160ff021916908315150217905550610d968061006e6000396000f3fe608060405260043610610083576000357c0100000000000000000000000000000000000000000000000000000000900463ffffffff1680630f2c93291461008857806313af4035146101045780632e1a7d4d14610155578063439766ce146101a85780638da5cb5b146101d75780639b96eece1461022e578063c4bc5da514610293575b600080fd5b6100ea6004803603604081101561009e57600080fd5b81019080803573ffffffffffffffffffffffffffffffffffffffff169060200190929190803573ffffffffffffffffffffffffffffffffffffffff1690602001909291905050506102c2565b604051808215151515815260200191505060405180910390f35b34801561011057600080fd5b506101536004803603602081101561012757600080fd5b81019080803573ffffffffffffffffffffffffffffffffffffffff16906020019092919050505061047b565b005b34801561016157600080fd5b5061018e6004803603602081101561017857600080fd5b8101908080359060200190929190505050610643565b604051808215151515815260200191505060405180910390f35b3480156101b457600080fd5b506101bd61095e565b604051808215151515815260200191505060405180910390f35b3480156101e357600080fd5b506101ec610b2c565b604051808273ffffffffffffffffffffffffffffffffffffffff1673ffffffffffffffffffffffffffffffffffffffff16815260200191505060405180910390f35b34801561023a57600080fd5b5061027d6004803603602081101561025157600080fd5b81019080803573ffffffffffffffffffffffffffffffffffffffff169060200190929190505050610b51565b6040518082815260200191505060405180910390f35b34801561029f57600080fd5b506102a8610b9a565b604051808215151515815260200191505060405180910390f35b60008060149054906101000a900460ff161515610347576040517f08c379a00000000000000000000000000000000000000000000000000000000081526004018080602001828103825260208152602001807f436f6e74726163742069732050617573656420617420746865206d6f6d656e7481525060200191505060405180910390fd5b60003411151561035357fe5b600060023481151561036157fe5b0490503481820114151561037157fe5b80600160008673ffffffffffffffffffffffffffffffffffffffff1673ffffffffffffffffffffffffffffffffffffffff1681526020019081526020016000206000828254019250508190555080600160008573ffffffffffffffffffffffffffffffffffffffff1673ffffffffffffffffffffffffffffffffffffffff168152602001908152602001600020600082825401925050819055508273ffffffffffffffffffffffffffffffffffffffff168473ffffffffffffffffffffffffffffffffffffffff167f490350d803844f1284c5ca1d2052ebac49f0caa9544552498cdef4bbfe57d8ce836040518082815260200191505060405180910390a3600191505092915050565b6000809054906101000a900473ffffffffffffffffffffffffffffffffffffffff1673ffffffffffffffffffffffffffffffffffffffff163373ffffffffffffffffffffffffffffffffffffffff16141515610565576040517f08c379a00000000000000000000000000000000000000000000000000000000081526004018080602001828103825260298152602001807f4f6e6c7920616e206f776e65722063616e207472616e7366657220746f20612081526020017f6e6577206f776e6572000000000000000000000000000000000000000000000081525060400191505060405180910390fd5b6000809054906101000a900473ffffffffffffffffffffffffffffffffffffffff1673ffffffffffffffffffffffffffffffffffffffff167ffcf23a92150d56e85e3a3d33b357493246e55783095eb6a733eb8439ffc752c882604051808273ffffffffffffffffffffffffffffffffffffffff1673ffffffffffffffffffffffffffffffffffffffff16815260200191505060405180910390a2806000806101000a81548173ffffffffffffffffffffffffffffffffffffffff021916908373ffffffffffffffffffffffffffffffffffffffff16021790555050565b60008060149054906101000a900460ff1615156106c8576040517f08c379a00000000000000000000000000000000000000000000000000000000081526004018080602001828103825260208152602001807f436f6e74726163742069732050617573656420617420746865206d6f6d656e7481525060200191505060405180910390fd5b6000600160003373ffffffffffffffffffffffffffffffffffffffff1673ffffffffffffffffffffffffffffffffffffffff1681526020019081526020016000205411151561077f576040517f08c379a00000000000000000000000000000000000000000000000000000000081526004018080602001828103825260138152602001807f4e6f7468696e6720746f2077697468647261770000000000000000000000000081525060200191505060405180910390fd5b81600160003373ffffffffffffffffffffffffffffffffffffffff1673ffffffffffffffffffffffffffffffffffffffff168152602001908152602001600020541015151561085c576040517f08c379a000000000000000000000000000000000000000000000000000000000815260040180806020018281038252602d8152602001807f576974686472617720616d6f756e74207265717565737465642068696768657281526020017f207468616e2062616c616e63650000000000000000000000000000000000000081525060400191505060405180910390fd5b81600160003373ffffffffffffffffffffffffffffffffffffffff1673ffffffffffffffffffffffffffffffffffffffff168152602001908152602001600020600082825403925050819055503373ffffffffffffffffffffffffffffffffffffffff166108fc839081150290604051600060405180830381858888f193505050501580156108ef573d6000803e3d6000fd5b503373ffffffffffffffffffffffffffffffffffffffff163073ffffffffffffffffffffffffffffffffffffffff167fddf252ad1be2c89b69c2b068fc378daa952ba7f163c4a11628f55a4df523b3ef846040518082815260200191505060405180910390a360019050919050565b60003373ffffffffffffffffffffffffffffffffffffffff166000809054906101000a900473ffffffffffffffffffffffffffffffffffffffff1673ffffffffffffffffffffffffffffffffffffffff16141515610a24576040517f08c379a00000000000000000000000000000000000000000000000000000000081526004018080602001828103825260208152602001807f4f6e6c79206f776e65722063616e2075736520746869732066756e6374696f6e81525060200191505060405180910390fd5b600060149054906101000a900460ff161515610aa8576040517f08c379a00000000000000000000000000000000000000000000000000000000081526004018080602001828103825260208152602001807f436f6e74726163742069732050617573656420617420746865206d6f6d656e7481525060200191505060405180910390fd5b60008060146101000a81548160ff0219169083151502179055507f0f16e24f375b1dbe1f5a889ed7cfe74cc12486509f3d710d14078f001874362233604051808273ffffffffffffffffffffffffffffffffffffffff1673ffffffffffffffffffffffffffffffffffffffff16815260200191505060405180910390a16001905090565b6000809054906101000a900473ffffffffffffffffffffffffffffffffffffffff1681565b6000600160008373ffffffffffffffffffffffffffffffffffffffff1673ffffffffffffffffffffffffffffffffffffffff168152602001908152602001600020549050919050565b60003373ffffffffffffffffffffffffffffffffffffffff166000809054906101000a900473ffffffffffffffffffffffffffffffffffffffff1673ffffffffffffffffffffffffffffffffffffffff16141515610c60576040517f08c379a00000000000000000000000000000000000000000000000000000000081526004018080602001828103825260208152602001807f4f6e6c79206f776e65722063616e2075736520746869732066756e6374696f6e81525060200191505060405180910390fd5b600060149054906101000a900460ff16151515610ce5576040517f08c379a000000000000000000000000000000000000000000000000000000000815260040180806020018281038252601a8152602001807f436f6e747261637420697320616c72656164792070617573656400000000000081525060200191505060405180910390fd5b6001600060146101000a81548160ff0219169083151502179055507f9462c22f62fe0e78a883a0adee3ba3cea8e9260940405ae88d97364fc9c6699233604051808273ffffffffffffffffffffffffffffffffffffffff1673ffffffffffffffffffffffffffffffffffffffff16815260200191505060405180910390a1600190509056fea165627a7a723058208ec25fea7e7986192621dcc0dba5142c99d36b0e99dea1ab31263ea99a7eeb540029",
  "source": "pragma solidity >=0.4.22 <0.6.0;\n\nimport \"./Stoppable.sol\";\n\ncontract Splitter is Stoppable{\n    mapping (address => uint) balances;\n\n    event Splitted(address indexed _bob, address indexed _carol, uint256 _value);\n    event Transfer(address indexed _from, address indexed _to, uint256 _value);\n\n    constructor() public payable {\n    }\n\n    function split(address bob, address carol) public onlyIfRunning payable returns(bool status){\n\n        // To check if the amount to be send is positive or not.\n        assert(msg.value > 0);\n\n        uint msgValueAmountByTwo = msg.value/2;\n\n        // To check if the amount can be divided by two equally or if there is any truncated numbers\n        assert(msgValueAmountByTwo + msgValueAmountByTwo == msg.value);\n\n        // Balances of Bob and Carol is updated\n        balances[bob] += msgValueAmountByTwo;\n        balances[carol] += msgValueAmountByTwo;\n\n        emit Splitted(bob, carol, msgValueAmountByTwo);\n        return true;\n    }\n\n    function getBalanceOf(address check) public view returns(uint amount){\n        return balances[check];\n    }\n\n    // https://stackoverflow.com/a/52438518/7520013\n    function withdraw(uint amount) public onlyIfRunning returns(bool status){\n        require(balances[msg.sender] > 0, \"Nothing to withdraw\");\n        require(balances[msg.sender] >= amount, \"Withdraw amount requested higher than balance\");\n\n        // https://blog.ethereum.org/2016/06/10/smart-contract-security/\n        balances[msg.sender] -= amount;\n        msg.sender.transfer(amount);\n\n        emit Transfer(address(this), msg.sender, amount);\n        return true;\n    }\n}\n",
  "sourcePath": "/home/john/DAPPS/Splitter/contracts/Splitter.sol",
  "compiler": {
    "name": "solc",
    "version": "0.5.0+commit.1d4f565a.Emscripten.clang"
  },
  "schemaVersion": "3.0.3",
  "updatedAt": "2019-07-11T13:54:58.627Z",
  "devdoc": {
    "methods": {}
  },
  "userdoc": {
    "methods": {}
  }
}