{
  "contractName": "Stoppable",
  "abi": [
    {
      "constant": false,
      "inputs": [
        {
          "name": "newOwner",
          "type": "address"
        }
      ],
      "name": "setOwner",
      "outputs": [],
      "payable": false,
      "stateMutability": "nonpayable",
      "type": "function"
    },
    {
      "constant": false,
      "inputs": [],
      "name": "destroy",
      "outputs": [],
      "payable": false,
      "stateMutability": "nonpayable",
      "type": "function"
    },
    {
      "inputs": [
        {
          "name": "startState",
          "type": "bool"
        }
      ],
      "payable": false,
      "stateMutability": "nonpayable",
      "type": "constructor"
    },
    {
      "anonymous": false,
      "inputs": [
        {
          "indexed": false,
          "name": "sender",
          "type": "address"
        }
      ],
      "name": "LogPausedContract",
      "type": "event"
    },
    {
      "anonymous": false,
      "inputs": [
        {
          "indexed": false,
          "name": "sender",
          "type": "address"
        }
      ],
      "name": "LogResumedContract",
      "type": "event"
    },
    {
      "anonymous": false,
      "inputs": [
        {
          "indexed": false,
          "name": "newOwner",
          "type": "address"
        }
      ],
      "name": "LogOwnerChanged",
      "type": "event"
    },
    {
      "constant": false,
      "inputs": [],
      "name": "pauseContract",
      "outputs": [
        {
          "name": "success",
          "type": "bool"
        }
      ],
      "payable": false,
      "stateMutability": "nonpayable",
      "type": "function"
    },
    {
      "constant": false,
      "inputs": [],
      "name": "resumeContract",
      "outputs": [
        {
          "name": "success",
          "type": "bool"
        }
      ],
      "payable": false,
      "stateMutability": "nonpayable",
      "type": "function"
    }
  ],
  "bytecode": "0x608060405234801561001057600080fd5b5060405160208061080f8339810180604052602081101561003057600080fd5b8101908080519060200190929190505050336000806101000a81548173ffffffffffffffffffffffffffffffffffffffff021916908373ffffffffffffffffffffffffffffffffffffffff16021790555080600060146101000a81548160ff02191690831515021790555050610764806100ab6000396000f3fe608060405260043610610062576000357c0100000000000000000000000000000000000000000000000000000000900463ffffffff16806313af403514610067578063439766ce146100b857806383197ef0146100e7578063c4bc5da5146100fe575b600080fd5b34801561007357600080fd5b506100b66004803603602081101561008a57600080fd5b81019080803573ffffffffffffffffffffffffffffffffffffffff16906020019092919050505061012d565b005b3480156100c457600080fd5b506100cd610297565b604051808215151515815260200191505060405180910390f35b3480156100f357600080fd5b506100fc610465565b005b34801561010a57600080fd5b50610113610542565b604051808215151515815260200191505060405180910390f35b3373ffffffffffffffffffffffffffffffffffffffff166000809054906101000a900473ffffffffffffffffffffffffffffffffffffffff1673ffffffffffffffffffffffffffffffffffffffff161415156101f1576040517f08c379a00000000000000000000000000000000000000000000000000000000081526004018080602001828103825260208152602001807f4f6e6c79206f776e65722063616e2075736520746869732066756e6374696f6e81525060200191505060405180910390fd5b7fa414b3eaf11f6c863a0bb4b36d8231c14e687177fa35fc1ac22b8ff4cd2c109f81604051808273ffffffffffffffffffffffffffffffffffffffff1673ffffffffffffffffffffffffffffffffffffffff16815260200191505060405180910390a1806000806101000a81548173ffffffffffffffffffffffffffffffffffffffff021916908373ffffffffffffffffffffffffffffffffffffffff16021790555050565b60003373ffffffffffffffffffffffffffffffffffffffff166000809054906101000a900473ffffffffffffffffffffffffffffffffffffffff1673ffffffffffffffffffffffffffffffffffffffff1614151561035d576040517f08c379a00000000000000000000000000000000000000000000000000000000081526004018080602001828103825260208152602001807f4f6e6c79206f776e65722063616e2075736520746869732066756e6374696f6e81525060200191505060405180910390fd5b600060149054906101000a900460ff1615156103e1576040517f08c379a00000000000000000000000000000000000000000000000000000000081526004018080602001828103825260208152602001807f436f6e74726163742069732050617573656420617420746865206d6f6d656e7481525060200191505060405180910390fd5b60008060146101000a81548160ff0219169083151502179055507f0f16e24f375b1dbe1f5a889ed7cfe74cc12486509f3d710d14078f001874362233604051808273ffffffffffffffffffffffffffffffffffffffff1673ffffffffffffffffffffffffffffffffffffffff16815260200191505060405180910390a16001905090565b3373ffffffffffffffffffffffffffffffffffffffff166000809054906101000a900473ffffffffffffffffffffffffffffffffffffffff1673ffffffffffffffffffffffffffffffffffffffff16141515610529576040517f08c379a00000000000000000000000000000000000000000000000000000000081526004018080602001828103825260208152602001807f4f6e6c79206f776e65722063616e2075736520746869732066756e6374696f6e81525060200191505060405180910390fd5b3373ffffffffffffffffffffffffffffffffffffffff16ff5b60003373ffffffffffffffffffffffffffffffffffffffff166000809054906101000a900473ffffffffffffffffffffffffffffffffffffffff1673ffffffffffffffffffffffffffffffffffffffff16141515610608576040517f08c379a00000000000000000000000000000000000000000000000000000000081526004018080602001828103825260208152602001807f4f6e6c79206f776e65722063616e2075736520746869732066756e6374696f6e81525060200191505060405180910390fd5b600060149054906101000a900460ff161515156106b3576040517f08c379a00000000000000000000000000000000000000000000000000000000081526004018080602001828103825260218152602001807f436f6e74726163742069732052756e6e696e6720617420746865206d6f6d656e81526020017f740000000000000000000000000000000000000000000000000000000000000081525060400191505060405180910390fd5b6001600060146101000a81548160ff0219169083151502179055507f9462c22f62fe0e78a883a0adee3ba3cea8e9260940405ae88d97364fc9c6699233604051808273ffffffffffffffffffffffffffffffffffffffff1673ffffffffffffffffffffffffffffffffffffffff16815260200191505060405180910390a1600190509056fea165627a7a7230582057d9ef2e6195a7f5f5a97fc5e240637e57044f23e9dfc989b2ca7f41268d6aa20029",
  "source": "pragma solidity >=0.4.22 <0.6.0;\n\nimport \"./Owned.sol\";\n\n// Inspiration from B9Lab Module 3 Solidity Inheritance Screencast\ncontract Stoppable is Owned {\n\n    bool private isRunning;\n\n    event LogPausedContract(address sender);\n    event LogResumedContract(address sender);\n\n    modifier onlyIfRunning {\n        require(isRunning, \"Contract is Paused at the moment\");\n        _;\n    }\n\n    modifier onlyIfPaused {\n        require(!isRunning, \"Contract is Running at the moment\");\n        _;\n    }\n\n    constructor(bool startState) public {\n        isRunning = startState;\n    }\n\n    function pauseContract() public onlyOwner onlyIfRunning returns(bool success){\n        isRunning = false;\n        emit LogPausedContract(msg.sender);\n        return true;\n    }\n\n    function resumeContract() public onlyOwner onlyIfPaused returns(bool success){\n        isRunning = true;\n        emit LogResumedContract(msg.sender);\n        return true;\n    }\n}\n",
  "sourcePath": "/home/vb/DAPPS/Splitter/contracts/Stoppable.sol",
  "compiler": {
    "name": "solc",
    "version": "0.5.0+commit.1d4f565a.Emscripten.clang"
  },
  "schemaVersion": "3.0.3",
  "updatedAt": "2019-07-13T07:53:56.513Z",
  "devdoc": {
    "methods": {}
  },
  "userdoc": {
    "methods": {}
  }
}