{
  "contractName": "Stoppable",
  "abi": [
    {
      "constant": false,
      "inputs": [
        {
          "name": "newOwner",
          "type": "address"
        }
      ],
      "name": "setOwner",
      "outputs": [],
      "payable": false,
      "stateMutability": "nonpayable",
      "type": "function"
    },
    {
      "inputs": [
        {
          "name": "startState",
          "type": "bool"
        }
      ],
      "payable": false,
      "stateMutability": "nonpayable",
      "type": "constructor"
    },
    {
      "anonymous": false,
      "inputs": [
        {
          "indexed": false,
          "name": "sender",
          "type": "address"
        }
      ],
      "name": "LogPausedContract",
      "type": "event"
    },
    {
      "anonymous": false,
      "inputs": [
        {
          "indexed": false,
          "name": "sender",
          "type": "address"
        }
      ],
      "name": "LogResumedContract",
      "type": "event"
    },
    {
      "anonymous": false,
      "inputs": [
        {
          "indexed": false,
          "name": "sender",
          "type": "address"
        }
      ],
      "name": "LogStoppedContract",
      "type": "event"
    },
    {
      "anonymous": false,
      "inputs": [
        {
          "indexed": false,
          "name": "newOwner",
          "type": "address"
        }
      ],
      "name": "LogOwnerChanged",
      "type": "event"
    },
    {
      "constant": false,
      "inputs": [],
      "name": "pauseContract",
      "outputs": [
        {
          "name": "success",
          "type": "bool"
        }
      ],
      "payable": false,
      "stateMutability": "nonpayable",
      "type": "function"
    },
    {
      "constant": false,
      "inputs": [],
      "name": "resumeContract",
      "outputs": [
        {
          "name": "success",
          "type": "bool"
        }
      ],
      "payable": false,
      "stateMutability": "nonpayable",
      "type": "function"
    },
    {
      "constant": false,
      "inputs": [],
      "name": "stopContract",
      "outputs": [
        {
          "name": "success",
          "type": "bool"
        }
      ],
      "payable": false,
      "stateMutability": "nonpayable",
      "type": "function"
    }
  ],
  "bytecode": "0x608060405234801561001057600080fd5b50604051602080610aaa8339810180604052602081101561003057600080fd5b8101908080519060200190929190505050336000806101000a81548173ffffffffffffffffffffffffffffffffffffffff021916908373ffffffffffffffffffffffffffffffffffffffff16021790555080600060146101000a81548160ff02191690831515021790555060008060156101000a81548160ff021916908315150217905550506109e5806100c56000396000f3fe608060405260043610610062576000357c0100000000000000000000000000000000000000000000000000000000900463ffffffff16806312253a6c1461006757806313af403514610096578063439766ce146100e7578063c4bc5da514610116575b600080fd5b34801561007357600080fd5b5061007c610145565b604051808215151515815260200191505060405180910390f35b3480156100a257600080fd5b506100e5600480360360208110156100b957600080fd5b81019080803573ffffffffffffffffffffffffffffffffffffffff16906020019092919050505061033b565b005b3480156100f357600080fd5b506100fc610570565b604051808215151515815260200191505060405180910390f35b34801561012257600080fd5b5061012b6107c3565b604051808215151515815260200191505060405180910390f35b60003373ffffffffffffffffffffffffffffffffffffffff166000809054906101000a900473ffffffffffffffffffffffffffffffffffffffff1673ffffffffffffffffffffffffffffffffffffffff1614151561020b576040517f08c379a00000000000000000000000000000000000000000000000000000000081526004018080602001828103825260208152602001807f4f6e6c79206f776e65722063616e2075736520746869732066756e6374696f6e81525060200191505060405180910390fd5b600060149054906101000a900460ff161515156102b6576040517f08c379a00000000000000000000000000000000000000000000000000000000081526004018080602001828103825260218152602001807f436f6e74726163742069732052756e6e696e6720617420746865206d6f6d656e81526020017f740000000000000000000000000000000000000000000000000000000000000081525060400191505060405180910390fd5b6001600060156101000a81548160ff0219169083151502179055507f411d34ad8a1c4c3a9a9f5f0fbd9bbacb09e746c13813fae8a11a23fd124b2d5c33604051808273ffffffffffffffffffffffffffffffffffffffff1673ffffffffffffffffffffffffffffffffffffffff16815260200191505060405180910390a16001905090565b3373ffffffffffffffffffffffffffffffffffffffff166000809054906101000a900473ffffffffffffffffffffffffffffffffffffffff1673ffffffffffffffffffffffffffffffffffffffff161415156103ff576040517f08c379a00000000000000000000000000000000000000000000000000000000081526004018080602001828103825260208152602001807f4f6e6c79206f776e65722063616e2075736520746869732066756e6374696f6e81525060200191505060405180910390fd5b600073ffffffffffffffffffffffffffffffffffffffff168173ffffffffffffffffffffffffffffffffffffffff16141515156104ca576040517f08c379a00000000000000000000000000000000000000000000000000000000081526004018080602001828103825260228152602001807f6e65774f776e65722073686f756c6420626520612076616c696420616464726581526020017f737300000000000000000000000000000000000000000000000000000000000081525060400191505060405180910390fd5b7fa414b3eaf11f6c863a0bb4b36d8231c14e687177fa35fc1ac22b8ff4cd2c109f81604051808273ffffffffffffffffffffffffffffffffffffffff1673ffffffffffffffffffffffffffffffffffffffff16815260200191505060405180910390a1806000806101000a81548173ffffffffffffffffffffffffffffffffffffffff021916908373ffffffffffffffffffffffffffffffffffffffff16021790555050565b60003373ffffffffffffffffffffffffffffffffffffffff166000809054906101000a900473ffffffffffffffffffffffffffffffffffffffff1673ffffffffffffffffffffffffffffffffffffffff16141515610636576040517f08c379a00000000000000000000000000000000000000000000000000000000081526004018080602001828103825260208152602001807f4f6e6c79206f776e65722063616e2075736520746869732066756e6374696f6e81525060200191505060405180910390fd5b600060149054906101000a900460ff1615156106ba576040517f08c379a00000000000000000000000000000000000000000000000000000000081526004018080602001828103825260208152602001807f436f6e74726163742069732050617573656420617420746865206d6f6d656e7481525060200191505060405180910390fd5b600060159054906101000a900460ff1615151561073f576040517f08c379a000000000000000000000000000000000000000000000000000000000815260040180806020018281038252601f8152602001807f436f6e74726163742069732053746f70706564207065726d616e656e746c790081525060200191505060405180910390fd5b60008060146101000a81548160ff0219169083151502179055507f0f16e24f375b1dbe1f5a889ed7cfe74cc12486509f3d710d14078f001874362233604051808273ffffffffffffffffffffffffffffffffffffffff1673ffffffffffffffffffffffffffffffffffffffff16815260200191505060405180910390a16001905090565b60003373ffffffffffffffffffffffffffffffffffffffff166000809054906101000a900473ffffffffffffffffffffffffffffffffffffffff1673ffffffffffffffffffffffffffffffffffffffff16141515610889576040517f08c379a00000000000000000000000000000000000000000000000000000000081526004018080602001828103825260208152602001807f4f6e6c79206f776e65722063616e2075736520746869732066756e6374696f6e81525060200191505060405180910390fd5b600060149054906101000a900460ff16151515610934576040517f08c379a00000000000000000000000000000000000000000000000000000000081526004018080602001828103825260218152602001807f436f6e74726163742069732052756e6e696e6720617420746865206d6f6d656e81526020017f740000000000000000000000000000000000000000000000000000000000000081525060400191505060405180910390fd5b6001600060146101000a81548160ff0219169083151502179055507f9462c22f62fe0e78a883a0adee3ba3cea8e9260940405ae88d97364fc9c6699233604051808273ffffffffffffffffffffffffffffffffffffffff1673ffffffffffffffffffffffffffffffffffffffff16815260200191505060405180910390a1600190509056fea165627a7a72305820e41464124c624ecc87c42fafd93f8fea41ceba56eba8070e72c1e17406e9e5ef0029",
  "source": "pragma solidity >=0.4.22 <0.6.0;\n\nimport \"./Owned.sol\";\n\n// Inspiration from B9Lab Module 3 Solidity Inheritance Screencast\ncontract Stoppable is Owned {\n\n    bool private isRunning;\n    bool private isStopped;\n\n    event LogPausedContract(address sender);\n    event LogResumedContract(address sender);\n    event LogStoppedContract(address sender);\n\n    modifier onlyIfRunning {\n        require(isRunning, \"Contract is Paused at the moment\");\n        require(!isStopped, \"Contract is Stopped permanently\");\n        _;\n    }\n\n    modifier onlyIfPaused {\n        require(!isRunning, \"Contract is Running at the moment\");\n        _;\n    }\n\n    constructor(bool startState) public {\n        isRunning = startState;\n        isStopped = false;\n    }\n\n    function pauseContract() public onlyOwner onlyIfRunning returns(bool success){\n        isRunning = false;\n        emit LogPausedContract(msg.sender);\n        return true;\n    }\n\n    function resumeContract() public onlyOwner onlyIfPaused returns(bool success){\n        isRunning = true;\n        emit LogResumedContract(msg.sender);\n        return true;\n    }\n\n    function stopContract() public onlyOwner onlyIfPaused returns(bool success){\n        isStopped = true;\n        emit LogStoppedContract(msg.sender);\n        return true;\n    }\n\n}\n",
  "sourcePath": "/home/vb/DAPPS/Splitter/contracts/Stoppable.sol",
  "compiler": {
    "name": "solc",
    "version": "0.5.0+commit.1d4f565a.Emscripten.clang"
  },
  "schemaVersion": "3.0.3",
  "updatedAt": "2019-07-17T04:24:35.220Z",
  "devdoc": {
    "methods": {}
  },
  "userdoc": {
    "methods": {}
  }
}